{
  "_format": "hh-sol-artifact-1",
  "contractName": "Cotisation",
  "sourceName": "contracts/Cotisation.sol",
  "abi": [
    {
      "inputs": [
        {
          "internalType": "uint256",
          "name": "_memberId",
          "type": "uint256"
        },
        {
          "internalType": "uint256",
          "name": "_groupId",
          "type": "uint256"
        }
      ],
      "name": "addMemberToGroup",
      "outputs": [],
      "stateMutability": "nonpayable",
      "type": "function"
    },
    {
      "inputs": [
        {
          "internalType": "uint256",
          "name": "_tontineId",
          "type": "uint256"
        }
      ],
      "name": "createGroup",
      "outputs": [],
      "stateMutability": "nonpayable",
      "type": "function"
    },
    {
      "inputs": [
        {
          "internalType": "string",
          "name": "_name",
          "type": "string"
        },
        {
          "internalType": "address",
          "name": "_memberWalletAddress",
          "type": "address"
        }
      ],
      "name": "createMember",
      "outputs": [],
      "stateMutability": "nonpayable",
      "type": "function"
    },
    {
      "inputs": [
        {
          "internalType": "string",
          "name": "_name",
          "type": "string"
        },
        {
          "internalType": "uint256",
          "name": "_amount",
          "type": "uint256"
        },
        {
          "internalType": "uint256",
          "name": "_beneficyingTimeInterval",
          "type": "uint256"
        }
      ],
      "name": "createTontine",
      "outputs": [],
      "stateMutability": "nonpayable",
      "type": "function"
    },
    {
      "inputs": [
        {
          "internalType": "uint256",
          "name": "_tontineId",
          "type": "uint256"
        }
      ],
      "name": "listGroupOfTontine",
      "outputs": [
        {
          "internalType": "uint256",
          "name": "",
          "type": "uint256"
        },
        {
          "internalType": "uint256",
          "name": "",
          "type": "uint256"
        },
        {
          "internalType": "uint256",
          "name": "",
          "type": "uint256"
        },
        {
          "internalType": "uint256",
          "name": "",
          "type": "uint256"
        }
      ],
      "stateMutability": "view",
      "type": "function"
    },
    {
      "inputs": [
        {
          "internalType": "uint256",
          "name": "_tontineId",
          "type": "uint256"
        }
      ],
      "name": "listMembersOfTontine",
      "outputs": [
        {
          "internalType": "uint256",
          "name": "",
          "type": "uint256"
        }
      ],
      "stateMutability": "view",
      "type": "function"
    },
    {
      "inputs": [
        {
          "internalType": "uint256",
          "name": "_memberId",
          "type": "uint256"
        }
      ],
      "name": "showMembers",
      "outputs": [
        {
          "components": [
            {
              "internalType": "uint256",
              "name": "memberId",
              "type": "uint256"
            },
            {
              "internalType": "string",
              "name": "name",
              "type": "string"
            },
            {
              "internalType": "address payable",
              "name": "memberWalletAddress",
              "type": "address"
            }
          ],
          "internalType": "struct Cotisation.Member",
          "name": "",
          "type": "tuple"
        }
      ],
      "stateMutability": "view",
      "type": "function"
    }
  ],
  "bytecode": "0x6080604052600080556000600155600060025534801561001e57600080fd5b50610f498061002e6000396000f3fe608060405234801561001057600080fd5b506004361061007d5760003560e01c806365bf60e01161005b57806365bf60e0146100fe5780636b42cf4d1461011a578063b96bd6de14610136578063eca9cb1d146101695761007d565b80632ef654851461008257806353d21d45146100b25780635e083361146100ce575b600080fd5b61009c6004803603810190610097919061071e565b610185565b6040516100a9919061087b565b60405180910390f35b6100cc60048036038101906100c791906109d2565b6102a4565b005b6100e860048036038101906100e3919061071e565b6103c1565b6040516100f59190610a50565b60405180910390f35b6101186004803603810190610113919061071e565b6103f9565b005b610134600480360381019061012f9190610aa9565b610511565b005b610150600480360381019061014b919061071e565b6105f7565b6040516101609493929190610b05565b60405180910390f35b610183600480360381019061017e9190610b4a565b610655565b005b61018d61069d565b60056000838152602001908152602001600020604051806060016040529081600082015481526020016001820180546101c590610bb9565b80601f01602080910402602001604051908101604052809291908181526020018280546101f190610bb9565b801561023e5780601f106102135761010080835404028352916020019161023e565b820191906000526020600020905b81548152906001019060200180831161022157829003601f168201915b505050505081526020016002820160009054906101000a900473ffffffffffffffffffffffffffffffffffffffff1673ffffffffffffffffffffffffffffffffffffffff1673ffffffffffffffffffffffffffffffffffffffff16815250509050919050565b6040518060a001604052803373ffffffffffffffffffffffffffffffffffffffff16815260200160016000546102da9190610c19565b8152602001848152602001838152602001828152506003600060016000546103029190610c19565b815260200190815260200160002060008201518160000160006101000a81548173ffffffffffffffffffffffffffffffffffffffff021916908373ffffffffffffffffffffffffffffffffffffffff1602179055506020820151816001015560408201518160020190816103769190610df9565b5060608201518160030155608082015181600401559050506103a560016000546103a09190610c19565b6103f9565b6000808154809291906103b790610ecb565b9190505550505050565b600080600660008481526020019081526020016000205490506004600082815260200190815260200160002060020154915050919050565b6040518060600160405280600180546104129190610c19565b8152602001828152602001600181525060046000600180546104349190610c19565b8152602001908152602001600020600082015181600001556020820151816001015560408201518160020155905050600180546104719190610c19565b60066000838152602001908152602001600020819055506001600081548092919061049b90610ecb565b91905055506104df6040518060400160405280600581526020017f61646d696e00000000000000000000000000000000000000000000000000000081525033610511565b61050e60056000600254815260200190815260200160002060000154600180546105099190610c19565b610655565b50565b6040518060600160405280600160025461052b9190610c19565b81526020018381526020018273ffffffffffffffffffffffffffffffffffffffff168152506005600060016002546105639190610c19565b81526020019081526020016000206000820151816000015560208201518160010190816105909190610df9565b5060408201518160020160006101000a81548173ffffffffffffffffffffffffffffffffffffffff021916908373ffffffffffffffffffffffffffffffffffffffff160217905550905050600260008154809291906105ee90610ecb565b91905055505050565b6000806000806000600660008781526020019081526020016000205490506004600082815260200190815260200160002060010154600460008381526020019081526020016000206002015487839450945094509450509193509193565b80600760008481526020019081526020016000208190555060046000828152602001908152602001600020600201600081548092919061069490610ecb565b91905055505050565b60405180606001604052806000815260200160608152602001600073ffffffffffffffffffffffffffffffffffffffff1681525090565b6000604051905090565b600080fd5b600080fd5b6000819050919050565b6106fb816106e8565b811461070657600080fd5b50565b600081359050610718816106f2565b92915050565b600060208284031215610734576107336106de565b5b600061074284828501610709565b91505092915050565b610754816106e8565b82525050565b600081519050919050565b600082825260208201905092915050565b60005b83811015610794578082015181840152602081019050610779565b60008484015250505050565b6000601f19601f8301169050919050565b60006107bc8261075a565b6107c68185610765565b93506107d6818560208601610776565b6107df816107a0565b840191505092915050565b600073ffffffffffffffffffffffffffffffffffffffff82169050919050565b6000610815826107ea565b9050919050565b6108258161080a565b82525050565b6000606083016000830151610843600086018261074b565b506020830151848203602086015261085b82826107b1565b9150506040830151610870604086018261081c565b508091505092915050565b60006020820190508181036000830152610895818461082b565b905092915050565b600080fd5b600080fd5b7f4e487b7100000000000000000000000000000000000000000000000000000000600052604160045260246000fd5b6108df826107a0565b810181811067ffffffffffffffff821117156108fe576108fd6108a7565b5b80604052505050565b60006109116106d4565b905061091d82826108d6565b919050565b600067ffffffffffffffff82111561093d5761093c6108a7565b5b610946826107a0565b9050602081019050919050565b82818337600083830152505050565b600061097561097084610922565b610907565b905082815260208101848484011115610991576109906108a2565b5b61099c848285610953565b509392505050565b600082601f8301126109b9576109b861089d565b5b81356109c9848260208601610962565b91505092915050565b6000806000606084860312156109eb576109ea6106de565b5b600084013567ffffffffffffffff811115610a0957610a086106e3565b5b610a15868287016109a4565b9350506020610a2686828701610709565b9250506040610a3786828701610709565b9150509250925092565b610a4a816106e8565b82525050565b6000602082019050610a656000830184610a41565b92915050565b6000610a76826107ea565b9050919050565b610a8681610a6b565b8114610a9157600080fd5b50565b600081359050610aa381610a7d565b92915050565b60008060408385031215610ac057610abf6106de565b5b600083013567ffffffffffffffff811115610ade57610add6106e3565b5b610aea858286016109a4565b9250506020610afb85828601610a94565b9150509250929050565b6000608082019050610b1a6000830187610a41565b610b276020830186610a41565b610b346040830185610a41565b610b416060830184610a41565b95945050505050565b60008060408385031215610b6157610b606106de565b5b6000610b6f85828601610709565b9250506020610b8085828601610709565b9150509250929050565b7f4e487b7100000000000000000000000000000000000000000000000000000000600052602260045260246000fd5b60006002820490506001821680610bd157607f821691505b602082108103610be457610be3610b8a565b5b50919050565b7f4e487b7100000000000000000000000000000000000000000000000000000000600052601160045260246000fd5b6000610c24826106e8565b9150610c2f836106e8565b9250828201905080821115610c4757610c46610bea565b5b92915050565b60008190508160005260206000209050919050565b60006020601f8301049050919050565b600082821b905092915050565b600060088302610caf7fffffffffffffffffffffffffffffffffffffffffffffffffffffffffffffffff82610c72565b610cb98683610c72565b95508019841693508086168417925050509392505050565b6000819050919050565b6000610cf6610cf1610cec846106e8565b610cd1565b6106e8565b9050919050565b6000819050919050565b610d1083610cdb565b610d24610d1c82610cfd565b848454610c7f565b825550505050565b600090565b610d39610d2c565b610d44818484610d07565b505050565b5b81811015610d6857610d5d600082610d31565b600181019050610d4a565b5050565b601f821115610dad57610d7e81610c4d565b610d8784610c62565b81016020851015610d96578190505b610daa610da285610c62565b830182610d49565b50505b505050565b600082821c905092915050565b6000610dd060001984600802610db2565b1980831691505092915050565b6000610de98383610dbf565b9150826002028217905092915050565b610e028261075a565b67ffffffffffffffff811115610e1b57610e1a6108a7565b5b610e258254610bb9565b610e30828285610d6c565b600060209050601f831160018114610e635760008415610e51578287015190505b610e5b8582610ddd565b865550610ec3565b601f198416610e7186610c4d565b60005b82811015610e9957848901518255600182019150602085019450602081019050610e74565b86831015610eb65784890151610eb2601f891682610dbf565b8355505b6001600288020188555050505b505050505050565b6000610ed6826106e8565b91507fffffffffffffffffffffffffffffffffffffffffffffffffffffffffffffffff8203610f0857610f07610bea565b5b60018201905091905056fea2646970667358221220f0c94cf792160b8a09d584480e03ea78b65b159bb52ca2449d83b99456ccc93464736f6c63430008110033",
  "linkReferences": {},
  "deployedLinkReferences": {}
}