{"contracts/Cotisation.sol":{"Cotisation":{"abi":[{"inputs":[{"internalType":"uint256","name":"_memberId","type":"uint256"},{"internalType":"uint256","name":"_groupId","type":"uint256"}],"name":"addMemberToGroup","outputs":[],"stateMutability":"nonpayable","type":"function"},{"inputs":[{"internalType":"uint256","name":"_tontineId","type":"uint256"}],"name":"createGroup","outputs":[],"stateMutability":"nonpayable","type":"function"},{"inputs":[{"internalType":"string","name":"_name","type":"string"},{"internalType":"address","name":"_memberWalletAddress","type":"address"}],"name":"createMember","outputs":[],"stateMutability":"nonpayable","type":"function"},{"inputs":[{"internalType":"string","name":"_name","type":"string"},{"internalType":"uint256","name":"_amount","type":"uint256"},{"internalType":"uint256","name":"_beneficyingTimeInterval","type":"uint256"}],"name":"createTontine","outputs":[],"stateMutability":"nonpayable","type":"function"},{"inputs":[{"internalType":"uint256","name":"_tontineId","type":"uint256"}],"name":"listGroupOfTontine","outputs":[{"internalType":"uint256","name":"","type":"uint256"},{"internalType":"uint256","name":"","type":"uint256"},{"internalType":"uint256","name":"","type":"uint256"},{"internalType":"uint256","name":"","type":"uint256"}],"stateMutability":"view","type":"function"},{"inputs":[{"internalType":"uint256","name":"_tontineId","type":"uint256"}],"name":"listMembersOfTontine","outputs":[{"internalType":"uint256","name":"","type":"uint256"}],"stateMutability":"view","type":"function"},{"inputs":[{"internalType":"uint256","name":"_memberId","type":"uint256"}],"name":"showMembers","outputs":[{"components":[{"internalType":"uint256","name":"memberId","type":"uint256"},{"internalType":"string","name":"name","type":"string"},{"internalType":"address payable","name":"memberWalletAddress","type":"address"}],"internalType":"struct Cotisation.Member","name":"","type":"tuple"}],"stateMutability":"view","type":"function"}],"evm":{"bytecode":{"linkReferences":{},"object":"6080604052600080556000600155600060025534801561001e57600080fd5b50610f498061002e6000396000f3fe608060405234801561001057600080fd5b506004361061007d5760003560e01c806365bf60e01161005b57806365bf60e0146100fe5780636b42cf4d1461011a578063b96bd6de14610136578063eca9cb1d146101695761007d565b80632ef654851461008257806353d21d45146100b25780635e083361146100ce575b600080fd5b61009c6004803603810190610097919061071e565b610185565b6040516100a9919061087b565b60405180910390f35b6100cc60048036038101906100c791906109d2565b6102a4565b005b6100e860048036038101906100e3919061071e565b6103c1565b6040516100f59190610a50565b60405180910390f35b6101186004803603810190610113919061071e565b6103f9565b005b610134600480360381019061012f9190610aa9565b610511565b005b610150600480360381019061014b919061071e565b6105f7565b6040516101609493929190610b05565b60405180910390f35b610183600480360381019061017e9190610b4a565b610655565b005b61018d61069d565b60056000838152602001908152602001600020604051806060016040529081600082015481526020016001820180546101c590610bb9565b80601f01602080910402602001604051908101604052809291908181526020018280546101f190610bb9565b801561023e5780601f106102135761010080835404028352916020019161023e565b820191906000526020600020905b81548152906001019060200180831161022157829003601f168201915b505050505081526020016002820160009054906101000a900473ffffffffffffffffffffffffffffffffffffffff1673ffffffffffffffffffffffffffffffffffffffff1673ffffffffffffffffffffffffffffffffffffffff16815250509050919050565b6040518060a001604052803373ffffffffffffffffffffffffffffffffffffffff16815260200160016000546102da9190610c19565b8152602001848152602001838152602001828152506003600060016000546103029190610c19565b815260200190815260200160002060008201518160000160006101000a81548173ffffffffffffffffffffffffffffffffffffffff021916908373ffffffffffffffffffffffffffffffffffffffff1602179055506020820151816001015560408201518160020190816103769190610df9565b5060608201518160030155608082015181600401559050506103a560016000546103a09190610c19565b6103f9565b6000808154809291906103b790610ecb565b9190505550505050565b600080600660008481526020019081526020016000205490506004600082815260200190815260200160002060020154915050919050565b6040518060600160405280600180546104129190610c19565b8152602001828152602001600181525060046000600180546104349190610c19565b8152602001908152602001600020600082015181600001556020820151816001015560408201518160020155905050600180546104719190610c19565b60066000838152602001908152602001600020819055506001600081548092919061049b90610ecb565b91905055506104df6040518060400160405280600581526020017f61646d696e00000000000000000000000000000000000000000000000000000081525033610511565b61050e60056000600254815260200190815260200160002060000154600180546105099190610c19565b610655565b50565b6040518060600160405280600160025461052b9190610c19565b81526020018381526020018273ffffffffffffffffffffffffffffffffffffffff168152506005600060016002546105639190610c19565b81526020019081526020016000206000820151816000015560208201518160010190816105909190610df9565b5060408201518160020160006101000a81548173ffffffffffffffffffffffffffffffffffffffff021916908373ffffffffffffffffffffffffffffffffffffffff160217905550905050600260008154809291906105ee90610ecb565b91905055505050565b6000806000806000600660008781526020019081526020016000205490506004600082815260200190815260200160002060010154600460008381526020019081526020016000206002015487839450945094509450509193509193565b80600760008481526020019081526020016000208190555060046000828152602001908152602001600020600201600081548092919061069490610ecb565b91905055505050565b60405180606001604052806000815260200160608152602001600073ffffffffffffffffffffffffffffffffffffffff1681525090565b6000604051905090565b600080fd5b600080fd5b6000819050919050565b6106fb816106e8565b811461070657600080fd5b50565b600081359050610718816106f2565b92915050565b600060208284031215610734576107336106de565b5b600061074284828501610709565b91505092915050565b610754816106e8565b82525050565b600081519050919050565b600082825260208201905092915050565b60005b83811015610794578082015181840152602081019050610779565b60008484015250505050565b6000601f19601f8301169050919050565b60006107bc8261075a565b6107c68185610765565b93506107d6818560208601610776565b6107df816107a0565b840191505092915050565b600073ffffffffffffffffffffffffffffffffffffffff82169050919050565b6000610815826107ea565b9050919050565b6108258161080a565b82525050565b6000606083016000830151610843600086018261074b565b506020830151848203602086015261085b82826107b1565b9150506040830151610870604086018261081c565b508091505092915050565b60006020820190508181036000830152610895818461082b565b905092915050565b600080fd5b600080fd5b7f4e487b7100000000000000000000000000000000000000000000000000000000600052604160045260246000fd5b6108df826107a0565b810181811067ffffffffffffffff821117156108fe576108fd6108a7565b5b80604052505050565b60006109116106d4565b905061091d82826108d6565b919050565b600067ffffffffffffffff82111561093d5761093c6108a7565b5b610946826107a0565b9050602081019050919050565b82818337600083830152505050565b600061097561097084610922565b610907565b905082815260208101848484011115610991576109906108a2565b5b61099c848285610953565b509392505050565b600082601f8301126109b9576109b861089d565b5b81356109c9848260208601610962565b91505092915050565b6000806000606084860312156109eb576109ea6106de565b5b600084013567ffffffffffffffff811115610a0957610a086106e3565b5b610a15868287016109a4565b9350506020610a2686828701610709565b9250506040610a3786828701610709565b9150509250925092565b610a4a816106e8565b82525050565b6000602082019050610a656000830184610a41565b92915050565b6000610a76826107ea565b9050919050565b610a8681610a6b565b8114610a9157600080fd5b50565b600081359050610aa381610a7d565b92915050565b60008060408385031215610ac057610abf6106de565b5b600083013567ffffffffffffffff811115610ade57610add6106e3565b5b610aea858286016109a4565b9250506020610afb85828601610a94565b9150509250929050565b6000608082019050610b1a6000830187610a41565b610b276020830186610a41565b610b346040830185610a41565b610b416060830184610a41565b95945050505050565b60008060408385031215610b6157610b606106de565b5b6000610b6f85828601610709565b9250506020610b8085828601610709565b9150509250929050565b7f4e487b7100000000000000000000000000000000000000000000000000000000600052602260045260246000fd5b60006002820490506001821680610bd157607f821691505b602082108103610be457610be3610b8a565b5b50919050565b7f4e487b7100000000000000000000000000000000000000000000000000000000600052601160045260246000fd5b6000610c24826106e8565b9150610c2f836106e8565b9250828201905080821115610c4757610c46610bea565b5b92915050565b60008190508160005260206000209050919050565b60006020601f8301049050919050565b600082821b905092915050565b600060088302610caf7fffffffffffffffffffffffffffffffffffffffffffffffffffffffffffffffff82610c72565b610cb98683610c72565b95508019841693508086168417925050509392505050565b6000819050919050565b6000610cf6610cf1610cec846106e8565b610cd1565b6106e8565b9050919050565b6000819050919050565b610d1083610cdb565b610d24610d1c82610cfd565b848454610c7f565b825550505050565b600090565b610d39610d2c565b610d44818484610d07565b505050565b5b81811015610d6857610d5d600082610d31565b600181019050610d4a565b5050565b601f821115610dad57610d7e81610c4d565b610d8784610c62565b81016020851015610d96578190505b610daa610da285610c62565b830182610d49565b50505b505050565b600082821c905092915050565b6000610dd060001984600802610db2565b1980831691505092915050565b6000610de98383610dbf565b9150826002028217905092915050565b610e028261075a565b67ffffffffffffffff811115610e1b57610e1a6108a7565b5b610e258254610bb9565b610e30828285610d6c565b600060209050601f831160018114610e635760008415610e51578287015190505b610e5b8582610ddd565b865550610ec3565b601f198416610e7186610c4d565b60005b82811015610e9957848901518255600182019150602085019450602081019050610e74565b86831015610eb65784890151610eb2601f891682610dbf565b8355505b6001600288020188555050505b505050505050565b6000610ed6826106e8565b91507fffffffffffffffffffffffffffffffffffffffffffffffffffffffffffffffff8203610f0857610f07610bea565b5b60018201905091905056fea2646970667358221220f0c94cf792160b8a09d584480e03ea78b65b159bb52ca2449d83b99456ccc93464736f6c63430008110033","opcodes":"PUSH1 0x80 PUSH1 0x40 MSTORE PUSH1 0x0 DUP1 SSTORE PUSH1 0x0 PUSH1 0x1 SSTORE PUSH1 0x0 PUSH1 0x2 SSTORE CALLVALUE DUP1 ISZERO PUSH2 0x1E JUMPI PUSH1 0x0 DUP1 REVERT JUMPDEST POP PUSH2 0xF49 DUP1 PUSH2 0x2E PUSH1 0x0 CODECOPY PUSH1 0x0 RETURN INVALID PUSH1 0x80 PUSH1 0x40 MSTORE CALLVALUE DUP1 ISZERO PUSH2 0x10 JUMPI PUSH1 0x0 DUP1 REVERT JUMPDEST POP PUSH1 0x4 CALLDATASIZE LT PUSH2 0x7D JUMPI PUSH1 0x0 CALLDATALOAD PUSH1 0xE0 SHR DUP1 PUSH4 0x65BF60E0 GT PUSH2 0x5B JUMPI DUP1 PUSH4 0x65BF60E0 EQ PUSH2 0xFE JUMPI DUP1 PUSH4 0x6B42CF4D EQ PUSH2 0x11A JUMPI DUP1 PUSH4 0xB96BD6DE EQ PUSH2 0x136 JUMPI DUP1 PUSH4 0xECA9CB1D EQ PUSH2 0x169 JUMPI PUSH2 0x7D JUMP JUMPDEST DUP1 PUSH4 0x2EF65485 EQ PUSH2 0x82 JUMPI DUP1 PUSH4 0x53D21D45 EQ PUSH2 0xB2 JUMPI DUP1 PUSH4 0x5E083361 EQ PUSH2 0xCE JUMPI JUMPDEST PUSH1 0x0 DUP1 REVERT JUMPDEST PUSH2 0x9C PUSH1 0x4 DUP1 CALLDATASIZE SUB DUP2 ADD SWAP1 PUSH2 0x97 SWAP2 SWAP1 PUSH2 0x71E JUMP JUMPDEST PUSH2 0x185 JUMP JUMPDEST PUSH1 0x40 MLOAD PUSH2 0xA9 SWAP2 SWAP1 PUSH2 0x87B JUMP JUMPDEST PUSH1 0x40 MLOAD DUP1 SWAP2 SUB SWAP1 RETURN JUMPDEST PUSH2 0xCC PUSH1 0x4 DUP1 CALLDATASIZE SUB DUP2 ADD SWAP1 PUSH2 0xC7 SWAP2 SWAP1 PUSH2 0x9D2 JUMP JUMPDEST PUSH2 0x2A4 JUMP JUMPDEST STOP JUMPDEST PUSH2 0xE8 PUSH1 0x4 DUP1 CALLDATASIZE SUB DUP2 ADD SWAP1 PUSH2 0xE3 SWAP2 SWAP1 PUSH2 0x71E JUMP JUMPDEST PUSH2 0x3C1 JUMP JUMPDEST PUSH1 0x40 MLOAD PUSH2 0xF5 SWAP2 SWAP1 PUSH2 0xA50 JUMP JUMPDEST PUSH1 0x40 MLOAD DUP1 SWAP2 SUB SWAP1 RETURN JUMPDEST PUSH2 0x118 PUSH1 0x4 DUP1 CALLDATASIZE SUB DUP2 ADD SWAP1 PUSH2 0x113 SWAP2 SWAP1 PUSH2 0x71E JUMP JUMPDEST PUSH2 0x3F9 JUMP JUMPDEST STOP JUMPDEST PUSH2 0x134 PUSH1 0x4 DUP1 CALLDATASIZE SUB DUP2 ADD SWAP1 PUSH2 0x12F SWAP2 SWAP1 PUSH2 0xAA9 JUMP JUMPDEST PUSH2 0x511 JUMP JUMPDEST STOP JUMPDEST PUSH2 0x150 PUSH1 0x4 DUP1 CALLDATASIZE SUB DUP2 ADD SWAP1 PUSH2 0x14B SWAP2 SWAP1 PUSH2 0x71E JUMP JUMPDEST PUSH2 0x5F7 JUMP JUMPDEST PUSH1 0x40 MLOAD PUSH2 0x160 SWAP5 SWAP4 SWAP3 SWAP2 SWAP1 PUSH2 0xB05 JUMP JUMPDEST PUSH1 0x40 MLOAD DUP1 SWAP2 SUB SWAP1 RETURN JUMPDEST PUSH2 0x183 PUSH1 0x4 DUP1 CALLDATASIZE SUB DUP2 ADD SWAP1 PUSH2 0x17E SWAP2 SWAP1 PUSH2 0xB4A JUMP JUMPDEST PUSH2 0x655 JUMP JUMPDEST STOP JUMPDEST PUSH2 0x18D PUSH2 0x69D JUMP JUMPDEST PUSH1 0x5 PUSH1 0x0 DUP4 DUP2 MSTORE PUSH1 0x20 ADD SWAP1 DUP2 MSTORE PUSH1 0x20 ADD PUSH1 0x0 KECCAK256 PUSH1 0x40 MLOAD DUP1 PUSH1 0x60 ADD PUSH1 0x40 MSTORE SWAP1 DUP2 PUSH1 0x0 DUP3 ADD SLOAD DUP2 MSTORE PUSH1 0x20 ADD PUSH1 0x1 DUP3 ADD DUP1 SLOAD PUSH2 0x1C5 SWAP1 PUSH2 0xBB9 JUMP JUMPDEST DUP1 PUSH1 0x1F ADD PUSH1 0x20 DUP1 SWAP2 DIV MUL PUSH1 0x20 ADD PUSH1 0x40 MLOAD SWAP1 DUP2 ADD PUSH1 0x40 MSTORE DUP1 SWAP3 SWAP2 SWAP1 DUP2 DUP2 MSTORE PUSH1 0x20 ADD DUP3 DUP1 SLOAD PUSH2 0x1F1 SWAP1 PUSH2 0xBB9 JUMP JUMPDEST DUP1 ISZERO PUSH2 0x23E JUMPI DUP1 PUSH1 0x1F LT PUSH2 0x213 JUMPI PUSH2 0x100 DUP1 DUP4 SLOAD DIV MUL DUP4 MSTORE SWAP2 PUSH1 0x20 ADD SWAP2 PUSH2 0x23E JUMP JUMPDEST DUP3 ADD SWAP2 SWAP1 PUSH1 0x0 MSTORE PUSH1 0x20 PUSH1 0x0 KECCAK256 SWAP1 JUMPDEST DUP2 SLOAD DUP2 MSTORE SWAP1 PUSH1 0x1 ADD SWAP1 PUSH1 0x20 ADD DUP1 DUP4 GT PUSH2 0x221 JUMPI DUP3 SWAP1 SUB PUSH1 0x1F AND DUP3 ADD SWAP2 JUMPDEST POP POP POP POP POP DUP2 MSTORE PUSH1 0x20 ADD PUSH1 0x2 DUP3 ADD PUSH1 0x0 SWAP1 SLOAD SWAP1 PUSH2 0x100 EXP SWAP1 DIV PUSH20 0xFFFFFFFFFFFFFFFFFFFFFFFFFFFFFFFFFFFFFFFF AND PUSH20 0xFFFFFFFFFFFFFFFFFFFFFFFFFFFFFFFFFFFFFFFF AND PUSH20 0xFFFFFFFFFFFFFFFFFFFFFFFFFFFFFFFFFFFFFFFF AND DUP2 MSTORE POP POP SWAP1 POP SWAP2 SWAP1 POP JUMP JUMPDEST PUSH1 0x40 MLOAD DUP1 PUSH1 0xA0 ADD PUSH1 0x40 MSTORE DUP1 CALLER PUSH20 0xFFFFFFFFFFFFFFFFFFFFFFFFFFFFFFFFFFFFFFFF AND DUP2 MSTORE PUSH1 0x20 ADD PUSH1 0x1 PUSH1 0x0 SLOAD PUSH2 0x2DA SWAP2 SWAP1 PUSH2 0xC19 JUMP JUMPDEST DUP2 MSTORE PUSH1 0x20 ADD DUP5 DUP2 MSTORE PUSH1 0x20 ADD DUP4 DUP2 MSTORE PUSH1 0x20 ADD DUP3 DUP2 MSTORE POP PUSH1 0x3 PUSH1 0x0 PUSH1 0x1 PUSH1 0x0 SLOAD PUSH2 0x302 SWAP2 SWAP1 PUSH2 0xC19 JUMP JUMPDEST DUP2 MSTORE PUSH1 0x20 ADD SWAP1 DUP2 MSTORE PUSH1 0x20 ADD PUSH1 0x0 KECCAK256 PUSH1 0x0 DUP3 ADD MLOAD DUP2 PUSH1 0x0 ADD PUSH1 0x0 PUSH2 0x100 EXP DUP2 SLOAD DUP2 PUSH20 0xFFFFFFFFFFFFFFFFFFFFFFFFFFFFFFFFFFFFFFFF MUL NOT AND SWAP1 DUP4 PUSH20 0xFFFFFFFFFFFFFFFFFFFFFFFFFFFFFFFFFFFFFFFF AND MUL OR SWAP1 SSTORE POP PUSH1 0x20 DUP3 ADD MLOAD DUP2 PUSH1 0x1 ADD SSTORE PUSH1 0x40 DUP3 ADD MLOAD DUP2 PUSH1 0x2 ADD SWAP1 DUP2 PUSH2 0x376 SWAP2 SWAP1 PUSH2 0xDF9 JUMP JUMPDEST POP PUSH1 0x60 DUP3 ADD MLOAD DUP2 PUSH1 0x3 ADD SSTORE PUSH1 0x80 DUP3 ADD MLOAD DUP2 PUSH1 0x4 ADD SSTORE SWAP1 POP POP PUSH2 0x3A5 PUSH1 0x1 PUSH1 0x0 SLOAD PUSH2 0x3A0 SWAP2 SWAP1 PUSH2 0xC19 JUMP JUMPDEST PUSH2 0x3F9 JUMP JUMPDEST PUSH1 0x0 DUP1 DUP2 SLOAD DUP1 SWAP3 SWAP2 SWAP1 PUSH2 0x3B7 SWAP1 PUSH2 0xECB JUMP JUMPDEST SWAP2 SWAP1 POP SSTORE POP POP POP POP JUMP JUMPDEST PUSH1 0x0 DUP1 PUSH1 0x6 PUSH1 0x0 DUP5 DUP2 MSTORE PUSH1 0x20 ADD SWAP1 DUP2 MSTORE PUSH1 0x20 ADD PUSH1 0x0 KECCAK256 SLOAD SWAP1 POP PUSH1 0x4 PUSH1 0x0 DUP3 DUP2 MSTORE PUSH1 0x20 ADD SWAP1 DUP2 MSTORE PUSH1 0x20 ADD PUSH1 0x0 KECCAK256 PUSH1 0x2 ADD SLOAD SWAP2 POP POP SWAP2 SWAP1 POP JUMP JUMPDEST PUSH1 0x40 MLOAD DUP1 PUSH1 0x60 ADD PUSH1 0x40 MSTORE DUP1 PUSH1 0x1 DUP1 SLOAD PUSH2 0x412 SWAP2 SWAP1 PUSH2 0xC19 JUMP JUMPDEST DUP2 MSTORE PUSH1 0x20 ADD DUP3 DUP2 MSTORE PUSH1 0x20 ADD PUSH1 0x1 DUP2 MSTORE POP PUSH1 0x4 PUSH1 0x0 PUSH1 0x1 DUP1 SLOAD PUSH2 0x434 SWAP2 SWAP1 PUSH2 0xC19 JUMP JUMPDEST DUP2 MSTORE PUSH1 0x20 ADD SWAP1 DUP2 MSTORE PUSH1 0x20 ADD PUSH1 0x0 KECCAK256 PUSH1 0x0 DUP3 ADD MLOAD DUP2 PUSH1 0x0 ADD SSTORE PUSH1 0x20 DUP3 ADD MLOAD DUP2 PUSH1 0x1 ADD SSTORE PUSH1 0x40 DUP3 ADD MLOAD DUP2 PUSH1 0x2 ADD SSTORE SWAP1 POP POP PUSH1 0x1 DUP1 SLOAD PUSH2 0x471 SWAP2 SWAP1 PUSH2 0xC19 JUMP JUMPDEST PUSH1 0x6 PUSH1 0x0 DUP4 DUP2 MSTORE PUSH1 0x20 ADD SWAP1 DUP2 MSTORE PUSH1 0x20 ADD PUSH1 0x0 KECCAK256 DUP2 SWAP1 SSTORE POP PUSH1 0x1 PUSH1 0x0 DUP2 SLOAD DUP1 SWAP3 SWAP2 SWAP1 PUSH2 0x49B SWAP1 PUSH2 0xECB JUMP JUMPDEST SWAP2 SWAP1 POP SSTORE POP PUSH2 0x4DF PUSH1 0x40 MLOAD DUP1 PUSH1 0x40 ADD PUSH1 0x40 MSTORE DUP1 PUSH1 0x5 DUP2 MSTORE PUSH1 0x20 ADD PUSH32 0x61646D696E000000000000000000000000000000000000000000000000000000 DUP2 MSTORE POP CALLER PUSH2 0x511 JUMP JUMPDEST PUSH2 0x50E PUSH1 0x5 PUSH1 0x0 PUSH1 0x2 SLOAD DUP2 MSTORE PUSH1 0x20 ADD SWAP1 DUP2 MSTORE PUSH1 0x20 ADD PUSH1 0x0 KECCAK256 PUSH1 0x0 ADD SLOAD PUSH1 0x1 DUP1 SLOAD PUSH2 0x509 SWAP2 SWAP1 PUSH2 0xC19 JUMP JUMPDEST PUSH2 0x655 JUMP JUMPDEST POP JUMP JUMPDEST PUSH1 0x40 MLOAD DUP1 PUSH1 0x60 ADD PUSH1 0x40 MSTORE DUP1 PUSH1 0x1 PUSH1 0x2 SLOAD PUSH2 0x52B SWAP2 SWAP1 PUSH2 0xC19 JUMP JUMPDEST DUP2 MSTORE PUSH1 0x20 ADD DUP4 DUP2 MSTORE PUSH1 0x20 ADD DUP3 PUSH20 0xFFFFFFFFFFFFFFFFFFFFFFFFFFFFFFFFFFFFFFFF AND DUP2 MSTORE POP PUSH1 0x5 PUSH1 0x0 PUSH1 0x1 PUSH1 0x2 SLOAD PUSH2 0x563 SWAP2 SWAP1 PUSH2 0xC19 JUMP JUMPDEST DUP2 MSTORE PUSH1 0x20 ADD SWAP1 DUP2 MSTORE PUSH1 0x20 ADD PUSH1 0x0 KECCAK256 PUSH1 0x0 DUP3 ADD MLOAD DUP2 PUSH1 0x0 ADD SSTORE PUSH1 0x20 DUP3 ADD MLOAD DUP2 PUSH1 0x1 ADD SWAP1 DUP2 PUSH2 0x590 SWAP2 SWAP1 PUSH2 0xDF9 JUMP JUMPDEST POP PUSH1 0x40 DUP3 ADD MLOAD DUP2 PUSH1 0x2 ADD PUSH1 0x0 PUSH2 0x100 EXP DUP2 SLOAD DUP2 PUSH20 0xFFFFFFFFFFFFFFFFFFFFFFFFFFFFFFFFFFFFFFFF MUL NOT AND SWAP1 DUP4 PUSH20 0xFFFFFFFFFFFFFFFFFFFFFFFFFFFFFFFFFFFFFFFF AND MUL OR SWAP1 SSTORE POP SWAP1 POP POP PUSH1 0x2 PUSH1 0x0 DUP2 SLOAD DUP1 SWAP3 SWAP2 SWAP1 PUSH2 0x5EE SWAP1 PUSH2 0xECB JUMP JUMPDEST SWAP2 SWAP1 POP SSTORE POP POP POP JUMP JUMPDEST PUSH1 0x0 DUP1 PUSH1 0x0 DUP1 PUSH1 0x0 PUSH1 0x6 PUSH1 0x0 DUP8 DUP2 MSTORE PUSH1 0x20 ADD SWAP1 DUP2 MSTORE PUSH1 0x20 ADD PUSH1 0x0 KECCAK256 SLOAD SWAP1 POP PUSH1 0x4 PUSH1 0x0 DUP3 DUP2 MSTORE PUSH1 0x20 ADD SWAP1 DUP2 MSTORE PUSH1 0x20 ADD PUSH1 0x0 KECCAK256 PUSH1 0x1 ADD SLOAD PUSH1 0x4 PUSH1 0x0 DUP4 DUP2 MSTORE PUSH1 0x20 ADD SWAP1 DUP2 MSTORE PUSH1 0x20 ADD PUSH1 0x0 KECCAK256 PUSH1 0x2 ADD SLOAD DUP8 DUP4 SWAP5 POP SWAP5 POP SWAP5 POP SWAP5 POP POP SWAP2 SWAP4 POP SWAP2 SWAP4 JUMP JUMPDEST DUP1 PUSH1 0x7 PUSH1 0x0 DUP5 DUP2 MSTORE PUSH1 0x20 ADD SWAP1 DUP2 MSTORE PUSH1 0x20 ADD PUSH1 0x0 KECCAK256 DUP2 SWAP1 SSTORE POP PUSH1 0x4 PUSH1 0x0 DUP3 DUP2 MSTORE PUSH1 0x20 ADD SWAP1 DUP2 MSTORE PUSH1 0x20 ADD PUSH1 0x0 KECCAK256 PUSH1 0x2 ADD PUSH1 0x0 DUP2 SLOAD DUP1 SWAP3 SWAP2 SWAP1 PUSH2 0x694 SWAP1 PUSH2 0xECB JUMP JUMPDEST SWAP2 SWAP1 POP SSTORE POP POP POP JUMP JUMPDEST PUSH1 0x40 MLOAD DUP1 PUSH1 0x60 ADD PUSH1 0x40 MSTORE DUP1 PUSH1 0x0 DUP2 MSTORE PUSH1 0x20 ADD PUSH1 0x60 DUP2 MSTORE PUSH1 0x20 ADD PUSH1 0x0 PUSH20 0xFFFFFFFFFFFFFFFFFFFFFFFFFFFFFFFFFFFFFFFF AND DUP2 MSTORE POP SWAP1 JUMP JUMPDEST PUSH1 0x0 PUSH1 0x40 MLOAD SWAP1 POP SWAP1 JUMP JUMPDEST PUSH1 0x0 DUP1 REVERT JUMPDEST PUSH1 0x0 DUP1 REVERT JUMPDEST PUSH1 0x0 DUP2 SWAP1 POP SWAP2 SWAP1 POP JUMP JUMPDEST PUSH2 0x6FB DUP2 PUSH2 0x6E8 JUMP JUMPDEST DUP2 EQ PUSH2 0x706 JUMPI PUSH1 0x0 DUP1 REVERT JUMPDEST POP JUMP JUMPDEST PUSH1 0x0 DUP2 CALLDATALOAD SWAP1 POP PUSH2 0x718 DUP2 PUSH2 0x6F2 JUMP JUMPDEST SWAP3 SWAP2 POP POP JUMP JUMPDEST PUSH1 0x0 PUSH1 0x20 DUP3 DUP5 SUB SLT ISZERO PUSH2 0x734 JUMPI PUSH2 0x733 PUSH2 0x6DE JUMP JUMPDEST JUMPDEST PUSH1 0x0 PUSH2 0x742 DUP5 DUP3 DUP6 ADD PUSH2 0x709 JUMP JUMPDEST SWAP2 POP POP SWAP3 SWAP2 POP POP JUMP JUMPDEST PUSH2 0x754 DUP2 PUSH2 0x6E8 JUMP JUMPDEST DUP3 MSTORE POP POP JUMP JUMPDEST PUSH1 0x0 DUP2 MLOAD SWAP1 POP SWAP2 SWAP1 POP JUMP JUMPDEST PUSH1 0x0 DUP3 DUP3 MSTORE PUSH1 0x20 DUP3 ADD SWAP1 POP SWAP3 SWAP2 POP POP JUMP JUMPDEST PUSH1 0x0 JUMPDEST DUP4 DUP2 LT ISZERO PUSH2 0x794 JUMPI DUP1 DUP3 ADD MLOAD DUP2 DUP5 ADD MSTORE PUSH1 0x20 DUP2 ADD SWAP1 POP PUSH2 0x779 JUMP JUMPDEST PUSH1 0x0 DUP5 DUP5 ADD MSTORE POP POP POP POP JUMP JUMPDEST PUSH1 0x0 PUSH1 0x1F NOT PUSH1 0x1F DUP4 ADD AND SWAP1 POP SWAP2 SWAP1 POP JUMP JUMPDEST PUSH1 0x0 PUSH2 0x7BC DUP3 PUSH2 0x75A JUMP JUMPDEST PUSH2 0x7C6 DUP2 DUP6 PUSH2 0x765 JUMP JUMPDEST SWAP4 POP PUSH2 0x7D6 DUP2 DUP6 PUSH1 0x20 DUP7 ADD PUSH2 0x776 JUMP JUMPDEST PUSH2 0x7DF DUP2 PUSH2 0x7A0 JUMP JUMPDEST DUP5 ADD SWAP2 POP POP SWAP3 SWAP2 POP POP JUMP JUMPDEST PUSH1 0x0 PUSH20 0xFFFFFFFFFFFFFFFFFFFFFFFFFFFFFFFFFFFFFFFF DUP3 AND SWAP1 POP SWAP2 SWAP1 POP JUMP JUMPDEST PUSH1 0x0 PUSH2 0x815 DUP3 PUSH2 0x7EA JUMP JUMPDEST SWAP1 POP SWAP2 SWAP1 POP JUMP JUMPDEST PUSH2 0x825 DUP2 PUSH2 0x80A JUMP JUMPDEST DUP3 MSTORE POP POP JUMP JUMPDEST PUSH1 0x0 PUSH1 0x60 DUP4 ADD PUSH1 0x0 DUP4 ADD MLOAD PUSH2 0x843 PUSH1 0x0 DUP7 ADD DUP3 PUSH2 0x74B JUMP JUMPDEST POP PUSH1 0x20 DUP4 ADD MLOAD DUP5 DUP3 SUB PUSH1 0x20 DUP7 ADD MSTORE PUSH2 0x85B DUP3 DUP3 PUSH2 0x7B1 JUMP JUMPDEST SWAP2 POP POP PUSH1 0x40 DUP4 ADD MLOAD PUSH2 0x870 PUSH1 0x40 DUP7 ADD DUP3 PUSH2 0x81C JUMP JUMPDEST POP DUP1 SWAP2 POP POP SWAP3 SWAP2 POP POP JUMP JUMPDEST PUSH1 0x0 PUSH1 0x20 DUP3 ADD SWAP1 POP DUP2 DUP2 SUB PUSH1 0x0 DUP4 ADD MSTORE PUSH2 0x895 DUP2 DUP5 PUSH2 0x82B JUMP JUMPDEST SWAP1 POP SWAP3 SWAP2 POP POP JUMP JUMPDEST PUSH1 0x0 DUP1 REVERT JUMPDEST PUSH1 0x0 DUP1 REVERT JUMPDEST PUSH32 0x4E487B7100000000000000000000000000000000000000000000000000000000 PUSH1 0x0 MSTORE PUSH1 0x41 PUSH1 0x4 MSTORE PUSH1 0x24 PUSH1 0x0 REVERT JUMPDEST PUSH2 0x8DF DUP3 PUSH2 0x7A0 JUMP JUMPDEST DUP2 ADD DUP2 DUP2 LT PUSH8 0xFFFFFFFFFFFFFFFF DUP3 GT OR ISZERO PUSH2 0x8FE JUMPI PUSH2 0x8FD PUSH2 0x8A7 JUMP JUMPDEST JUMPDEST DUP1 PUSH1 0x40 MSTORE POP POP POP JUMP JUMPDEST PUSH1 0x0 PUSH2 0x911 PUSH2 0x6D4 JUMP JUMPDEST SWAP1 POP PUSH2 0x91D DUP3 DUP3 PUSH2 0x8D6 JUMP JUMPDEST SWAP2 SWAP1 POP JUMP JUMPDEST PUSH1 0x0 PUSH8 0xFFFFFFFFFFFFFFFF DUP3 GT ISZERO PUSH2 0x93D JUMPI PUSH2 0x93C PUSH2 0x8A7 JUMP JUMPDEST JUMPDEST PUSH2 0x946 DUP3 PUSH2 0x7A0 JUMP JUMPDEST SWAP1 POP PUSH1 0x20 DUP2 ADD SWAP1 POP SWAP2 SWAP1 POP JUMP JUMPDEST DUP3 DUP2 DUP4 CALLDATACOPY PUSH1 0x0 DUP4 DUP4 ADD MSTORE POP POP POP JUMP JUMPDEST PUSH1 0x0 PUSH2 0x975 PUSH2 0x970 DUP5 PUSH2 0x922 JUMP JUMPDEST PUSH2 0x907 JUMP JUMPDEST SWAP1 POP DUP3 DUP2 MSTORE PUSH1 0x20 DUP2 ADD DUP5 DUP5 DUP5 ADD GT ISZERO PUSH2 0x991 JUMPI PUSH2 0x990 PUSH2 0x8A2 JUMP JUMPDEST JUMPDEST PUSH2 0x99C DUP5 DUP3 DUP6 PUSH2 0x953 JUMP JUMPDEST POP SWAP4 SWAP3 POP POP POP JUMP JUMPDEST PUSH1 0x0 DUP3 PUSH1 0x1F DUP4 ADD SLT PUSH2 0x9B9 JUMPI PUSH2 0x9B8 PUSH2 0x89D JUMP JUMPDEST JUMPDEST DUP2 CALLDATALOAD PUSH2 0x9C9 DUP5 DUP3 PUSH1 0x20 DUP7 ADD PUSH2 0x962 JUMP JUMPDEST SWAP2 POP POP SWAP3 SWAP2 POP POP JUMP JUMPDEST PUSH1 0x0 DUP1 PUSH1 0x0 PUSH1 0x60 DUP5 DUP7 SUB SLT ISZERO PUSH2 0x9EB JUMPI PUSH2 0x9EA PUSH2 0x6DE JUMP JUMPDEST JUMPDEST PUSH1 0x0 DUP5 ADD CALLDATALOAD PUSH8 0xFFFFFFFFFFFFFFFF DUP2 GT ISZERO PUSH2 0xA09 JUMPI PUSH2 0xA08 PUSH2 0x6E3 JUMP JUMPDEST JUMPDEST PUSH2 0xA15 DUP7 DUP3 DUP8 ADD PUSH2 0x9A4 JUMP JUMPDEST SWAP4 POP POP PUSH1 0x20 PUSH2 0xA26 DUP7 DUP3 DUP8 ADD PUSH2 0x709 JUMP JUMPDEST SWAP3 POP POP PUSH1 0x40 PUSH2 0xA37 DUP7 DUP3 DUP8 ADD PUSH2 0x709 JUMP JUMPDEST SWAP2 POP POP SWAP3 POP SWAP3 POP SWAP3 JUMP JUMPDEST PUSH2 0xA4A DUP2 PUSH2 0x6E8 JUMP JUMPDEST DUP3 MSTORE POP POP JUMP JUMPDEST PUSH1 0x0 PUSH1 0x20 DUP3 ADD SWAP1 POP PUSH2 0xA65 PUSH1 0x0 DUP4 ADD DUP5 PUSH2 0xA41 JUMP JUMPDEST SWAP3 SWAP2 POP POP JUMP JUMPDEST PUSH1 0x0 PUSH2 0xA76 DUP3 PUSH2 0x7EA JUMP JUMPDEST SWAP1 POP SWAP2 SWAP1 POP JUMP JUMPDEST PUSH2 0xA86 DUP2 PUSH2 0xA6B JUMP JUMPDEST DUP2 EQ PUSH2 0xA91 JUMPI PUSH1 0x0 DUP1 REVERT JUMPDEST POP JUMP JUMPDEST PUSH1 0x0 DUP2 CALLDATALOAD SWAP1 POP PUSH2 0xAA3 DUP2 PUSH2 0xA7D JUMP JUMPDEST SWAP3 SWAP2 POP POP JUMP JUMPDEST PUSH1 0x0 DUP1 PUSH1 0x40 DUP4 DUP6 SUB SLT ISZERO PUSH2 0xAC0 JUMPI PUSH2 0xABF PUSH2 0x6DE JUMP JUMPDEST JUMPDEST PUSH1 0x0 DUP4 ADD CALLDATALOAD PUSH8 0xFFFFFFFFFFFFFFFF DUP2 GT ISZERO PUSH2 0xADE JUMPI PUSH2 0xADD PUSH2 0x6E3 JUMP JUMPDEST JUMPDEST PUSH2 0xAEA DUP6 DUP3 DUP7 ADD PUSH2 0x9A4 JUMP JUMPDEST SWAP3 POP POP PUSH1 0x20 PUSH2 0xAFB DUP6 DUP3 DUP7 ADD PUSH2 0xA94 JUMP JUMPDEST SWAP2 POP POP SWAP3 POP SWAP3 SWAP1 POP JUMP JUMPDEST PUSH1 0x0 PUSH1 0x80 DUP3 ADD SWAP1 POP PUSH2 0xB1A PUSH1 0x0 DUP4 ADD DUP8 PUSH2 0xA41 JUMP JUMPDEST PUSH2 0xB27 PUSH1 0x20 DUP4 ADD DUP7 PUSH2 0xA41 JUMP JUMPDEST PUSH2 0xB34 PUSH1 0x40 DUP4 ADD DUP6 PUSH2 0xA41 JUMP JUMPDEST PUSH2 0xB41 PUSH1 0x60 DUP4 ADD DUP5 PUSH2 0xA41 JUMP JUMPDEST SWAP6 SWAP5 POP POP POP POP POP JUMP JUMPDEST PUSH1 0x0 DUP1 PUSH1 0x40 DUP4 DUP6 SUB SLT ISZERO PUSH2 0xB61 JUMPI PUSH2 0xB60 PUSH2 0x6DE JUMP JUMPDEST JUMPDEST PUSH1 0x0 PUSH2 0xB6F DUP6 DUP3 DUP7 ADD PUSH2 0x709 JUMP JUMPDEST SWAP3 POP POP PUSH1 0x20 PUSH2 0xB80 DUP6 DUP3 DUP7 ADD PUSH2 0x709 JUMP JUMPDEST SWAP2 POP POP SWAP3 POP SWAP3 SWAP1 POP JUMP JUMPDEST PUSH32 0x4E487B7100000000000000000000000000000000000000000000000000000000 PUSH1 0x0 MSTORE PUSH1 0x22 PUSH1 0x4 MSTORE PUSH1 0x24 PUSH1 0x0 REVERT JUMPDEST PUSH1 0x0 PUSH1 0x2 DUP3 DIV SWAP1 POP PUSH1 0x1 DUP3 AND DUP1 PUSH2 0xBD1 JUMPI PUSH1 0x7F DUP3 AND SWAP2 POP JUMPDEST PUSH1 0x20 DUP3 LT DUP2 SUB PUSH2 0xBE4 JUMPI PUSH2 0xBE3 PUSH2 0xB8A JUMP JUMPDEST JUMPDEST POP SWAP2 SWAP1 POP JUMP JUMPDEST PUSH32 0x4E487B7100000000000000000000000000000000000000000000000000000000 PUSH1 0x0 MSTORE PUSH1 0x11 PUSH1 0x4 MSTORE PUSH1 0x24 PUSH1 0x0 REVERT JUMPDEST PUSH1 0x0 PUSH2 0xC24 DUP3 PUSH2 0x6E8 JUMP JUMPDEST SWAP2 POP PUSH2 0xC2F DUP4 PUSH2 0x6E8 JUMP JUMPDEST SWAP3 POP DUP3 DUP3 ADD SWAP1 POP DUP1 DUP3 GT ISZERO PUSH2 0xC47 JUMPI PUSH2 0xC46 PUSH2 0xBEA JUMP JUMPDEST JUMPDEST SWAP3 SWAP2 POP POP JUMP JUMPDEST PUSH1 0x0 DUP2 SWAP1 POP DUP2 PUSH1 0x0 MSTORE PUSH1 0x20 PUSH1 0x0 KECCAK256 SWAP1 POP SWAP2 SWAP1 POP JUMP JUMPDEST PUSH1 0x0 PUSH1 0x20 PUSH1 0x1F DUP4 ADD DIV SWAP1 POP SWAP2 SWAP1 POP JUMP JUMPDEST PUSH1 0x0 DUP3 DUP3 SHL SWAP1 POP SWAP3 SWAP2 POP POP JUMP JUMPDEST PUSH1 0x0 PUSH1 0x8 DUP4 MUL PUSH2 0xCAF PUSH32 0xFFFFFFFFFFFFFFFFFFFFFFFFFFFFFFFFFFFFFFFFFFFFFFFFFFFFFFFFFFFFFFFF DUP3 PUSH2 0xC72 JUMP JUMPDEST PUSH2 0xCB9 DUP7 DUP4 PUSH2 0xC72 JUMP JUMPDEST SWAP6 POP DUP1 NOT DUP5 AND SWAP4 POP DUP1 DUP7 AND DUP5 OR SWAP3 POP POP POP SWAP4 SWAP3 POP POP POP JUMP JUMPDEST PUSH1 0x0 DUP2 SWAP1 POP SWAP2 SWAP1 POP JUMP JUMPDEST PUSH1 0x0 PUSH2 0xCF6 PUSH2 0xCF1 PUSH2 0xCEC DUP5 PUSH2 0x6E8 JUMP JUMPDEST PUSH2 0xCD1 JUMP JUMPDEST PUSH2 0x6E8 JUMP JUMPDEST SWAP1 POP SWAP2 SWAP1 POP JUMP JUMPDEST PUSH1 0x0 DUP2 SWAP1 POP SWAP2 SWAP1 POP JUMP JUMPDEST PUSH2 0xD10 DUP4 PUSH2 0xCDB JUMP JUMPDEST PUSH2 0xD24 PUSH2 0xD1C DUP3 PUSH2 0xCFD JUMP JUMPDEST DUP5 DUP5 SLOAD PUSH2 0xC7F JUMP JUMPDEST DUP3 SSTORE POP POP POP POP JUMP JUMPDEST PUSH1 0x0 SWAP1 JUMP JUMPDEST PUSH2 0xD39 PUSH2 0xD2C JUMP JUMPDEST PUSH2 0xD44 DUP2 DUP5 DUP5 PUSH2 0xD07 JUMP JUMPDEST POP POP POP JUMP JUMPDEST JUMPDEST DUP2 DUP2 LT ISZERO PUSH2 0xD68 JUMPI PUSH2 0xD5D PUSH1 0x0 DUP3 PUSH2 0xD31 JUMP JUMPDEST PUSH1 0x1 DUP2 ADD SWAP1 POP PUSH2 0xD4A JUMP JUMPDEST POP POP JUMP JUMPDEST PUSH1 0x1F DUP3 GT ISZERO PUSH2 0xDAD JUMPI PUSH2 0xD7E DUP2 PUSH2 0xC4D JUMP JUMPDEST PUSH2 0xD87 DUP5 PUSH2 0xC62 JUMP JUMPDEST DUP2 ADD PUSH1 0x20 DUP6 LT ISZERO PUSH2 0xD96 JUMPI DUP2 SWAP1 POP JUMPDEST PUSH2 0xDAA PUSH2 0xDA2 DUP6 PUSH2 0xC62 JUMP JUMPDEST DUP4 ADD DUP3 PUSH2 0xD49 JUMP JUMPDEST POP POP JUMPDEST POP POP POP JUMP JUMPDEST PUSH1 0x0 DUP3 DUP3 SHR SWAP1 POP SWAP3 SWAP2 POP POP JUMP JUMPDEST PUSH1 0x0 PUSH2 0xDD0 PUSH1 0x0 NOT DUP5 PUSH1 0x8 MUL PUSH2 0xDB2 JUMP JUMPDEST NOT DUP1 DUP4 AND SWAP2 POP POP SWAP3 SWAP2 POP POP JUMP JUMPDEST PUSH1 0x0 PUSH2 0xDE9 DUP4 DUP4 PUSH2 0xDBF JUMP JUMPDEST SWAP2 POP DUP3 PUSH1 0x2 MUL DUP3 OR SWAP1 POP SWAP3 SWAP2 POP POP JUMP JUMPDEST PUSH2 0xE02 DUP3 PUSH2 0x75A JUMP JUMPDEST PUSH8 0xFFFFFFFFFFFFFFFF DUP2 GT ISZERO PUSH2 0xE1B JUMPI PUSH2 0xE1A PUSH2 0x8A7 JUMP JUMPDEST JUMPDEST PUSH2 0xE25 DUP3 SLOAD PUSH2 0xBB9 JUMP JUMPDEST PUSH2 0xE30 DUP3 DUP3 DUP6 PUSH2 0xD6C JUMP JUMPDEST PUSH1 0x0 PUSH1 0x20 SWAP1 POP PUSH1 0x1F DUP4 GT PUSH1 0x1 DUP2 EQ PUSH2 0xE63 JUMPI PUSH1 0x0 DUP5 ISZERO PUSH2 0xE51 JUMPI DUP3 DUP8 ADD MLOAD SWAP1 POP JUMPDEST PUSH2 0xE5B DUP6 DUP3 PUSH2 0xDDD JUMP JUMPDEST DUP7 SSTORE POP PUSH2 0xEC3 JUMP JUMPDEST PUSH1 0x1F NOT DUP5 AND PUSH2 0xE71 DUP7 PUSH2 0xC4D JUMP JUMPDEST PUSH1 0x0 JUMPDEST DUP3 DUP2 LT ISZERO PUSH2 0xE99 JUMPI DUP5 DUP10 ADD MLOAD DUP3 SSTORE PUSH1 0x1 DUP3 ADD SWAP2 POP PUSH1 0x20 DUP6 ADD SWAP5 POP PUSH1 0x20 DUP2 ADD SWAP1 POP PUSH2 0xE74 JUMP JUMPDEST DUP7 DUP4 LT ISZERO PUSH2 0xEB6 JUMPI DUP5 DUP10 ADD MLOAD PUSH2 0xEB2 PUSH1 0x1F DUP10 AND DUP3 PUSH2 0xDBF JUMP JUMPDEST DUP4 SSTORE POP JUMPDEST PUSH1 0x1 PUSH1 0x2 DUP9 MUL ADD DUP9 SSTORE POP POP POP JUMPDEST POP POP POP POP POP POP JUMP JUMPDEST PUSH1 0x0 PUSH2 0xED6 DUP3 PUSH2 0x6E8 JUMP JUMPDEST SWAP2 POP PUSH32 0xFFFFFFFFFFFFFFFFFFFFFFFFFFFFFFFFFFFFFFFFFFFFFFFFFFFFFFFFFFFFFFFF DUP3 SUB PUSH2 0xF08 JUMPI PUSH2 0xF07 PUSH2 0xBEA JUMP JUMPDEST JUMPDEST PUSH1 0x1 DUP3 ADD SWAP1 POP SWAP2 SWAP1 POP JUMP INVALID LOG2 PUSH5 0x6970667358 0x22 SLT KECCAK256 CREATE 0xC9 0x4C 0xF7 SWAP3 AND SIGNEXTEND DUP11 MULMOD 0xD5 DUP5 BASEFEE 0xE SUB 0xEA PUSH25 0xB65B159BB52CA2449D83B99456CCC93464736F6C6343000811 STOP CALLER "},"methodIdentifiers":{"addMemberToGroup(uint256,uint256)":"eca9cb1d","createGroup(uint256)":"65bf60e0","createMember(string,address)":"6b42cf4d","createTontine(string,uint256,uint256)":"53d21d45","listGroupOfTontine(uint256)":"b96bd6de","listMembersOfTontine(uint256)":"5e083361","showMembers(uint256)":"2ef65485"}}}}}